{
  "abi": [
    {
      "inputs": [],
      "name": "contador",
      "outputs": [
        {
          "internalType": "uint256",
          "name": "",
          "type": "uint256"
        }
      ],
      "stateMutability": "view",
      "type": "function"
    },
    {
      "inputs": [],
      "name": "getContador",
      "outputs": [
        {
          "internalType": "uint256",
          "name": "",
          "type": "uint256"
        }
      ],
      "stateMutability": "view",
      "type": "function"
    },
    {
      "inputs": [],
      "name": "incrementa",
      "outputs": [],
      "stateMutability": "nonpayable",
      "type": "function"
    },
    {
      "inputs": [],
      "name": "reduce",
      "outputs": [],
      "stateMutability": "nonpayable",
      "type": "function"
    }
  ],
  "bytecode": {
    "object": "0x608060405234801561001057600080fd5b50610116806100206000396000f3fe6080604052348015600f57600080fd5b506004361060465760003560e01c806345219b0e14604b57806353d27cc2146053578063a72548b414606d578063bb8be3af146073575b600080fd5b6051607a565b005b605b60005481565b60405190815260200160405180910390f35b60516091565b600054605b565b6001600080828254608a919060b7565b9091555050565b6001600080828254608a919060cb565b634e487b7160e01b600052601160045260246000fd5b60008282101560c65760c660a1565b500390565b6000821982111560db5760db60a1565b50019056fea2646970667358221220789a3c9d0455b2ab486e9ea4ba4842fd1cc2f5a65298e132cd3641aa772e8d8c64736f6c634300080a0033",
    "linkReferences": {}
  },
  "methodIdentifiers": {
    "contador()": "53d27cc2",
    "getContador()": "bb8be3af",
    "incrementa()": "a72548b4",
    "reduce()": "45219b0e"
  },
  "id": 18
}