{
  "abi": [
    {
      "inputs": [],
      "name": "saludo",
      "outputs": [
        {
          "internalType": "string",
          "name": "",
          "type": "string"
        }
      ],
      "stateMutability": "view",
      "type": "function"
    }
  ],
  "bytecode": {
    "object": "0x60c0604052600b60808190526a486f6c61204d756e646f2160a81b60a090815261002c916000919061003f565b5034801561003957600080fd5b50610113565b82805461004b906100d8565b90600052602060002090601f01602090048101928261006d57600085556100b3565b82601f1061008657805160ff19168380011785556100b3565b828001600101855582156100b3579182015b828111156100b3578251825591602001919060010190610098565b506100bf9291506100c3565b5090565b5b808211156100bf57600081556001016100c4565b600181811c908216806100ec57607f821691505b6020821081141561010d57634e487b7160e01b600052602260045260246000fd5b50919050565b6101a2806101226000396000f3fe608060405234801561001057600080fd5b506004361061002b5760003560e01c80630a3a9d6314610030575b600080fd5b61003861004e565b60405161004591906100dc565b60405180910390f35b6000805461005b90610131565b80601f016020809104026020016040519081016040528092919081815260200182805461008790610131565b80156100d45780601f106100a9576101008083540402835291602001916100d4565b820191906000526020600020905b8154815290600101906020018083116100b757829003601f168201915b505050505081565b600060208083528351808285015260005b81811015610109578581018301518582016040015282016100ed565b8181111561011b576000604083870101525b50601f01601f1916929092016040019392505050565b600181811c9082168061014557607f821691505b6020821081141561016657634e487b7160e01b600052602260045260246000fd5b5091905056fea2646970667358221220be11a3311c1aab8d22e628f7b4f3b154ec5002ba064b34586bf3f0b2de0aa7cf64736f6c634300080a0033",
    "linkReferences": {}
  },
  "methodIdentifiers": {
    "saludo()": "0a3a9d63"
  },
  "id": 19
}